:020000040000FA
:04000000FEEFFFF020
:10250000000A0D416374696F6E7320666F722064F8
:102510003020636F6D6D616E640D000A0D41637450
:10252000696F6E7320666F7220653020636F6D6D0A
:10253000616E640D000A0D416374696F6E732066ED
:102540006F7220643120636F6D6D616E640D000ADF
:102550000D416374696F6E7320666F722065312060
:10256000636F6D6D616E640D005541525420697347
:1025700020757020616E642072756E6E696E670DD5
:10258000000A0D42616420636F6D6D616E640D0021
:10259000643000653000643100653100256300005F
:1025A00004011851FC0B186FC950FC0BC96EC150C7
:1025B000FC0BC16E2891CB90200E0201296F040103
:1025C0002893CB82290E0201726F000EAF6F8A0E24
:1025D000AE6F000EAB6FAB8FAB8BAB89000EAD6FE8
:1025E000000EAC6FAC8F690E146E250E156EEDECFF
:1025F00015F0000E416E2C0E4124D96EDA6A050EDC
:10260000DA22000EDF6E412A130E41640AEF13F046
:102610000CEF13F0FBEF12F0000E416E0201B0B3AD
:1026200014EF13F016EF13F00EEF13F000F060004C
:1026300084FA40F50D0E4018D8A421EF13F023EFD3
:1026400013F0AEEF13F02C0E016E050E026E930E1A
:10265000036E250E046E4CEC15F001500210D8A448
:1026600034EF13F036EF13F03FEF13F01B0E146E40
:10267000250E156EEDEC15F0C18099EF13F02C0EC0
:10268000016E050E026E990E036E250E046E4CEC63
:1026900015F001500210D8A450EF13F052EF13F0D0
:1026A0005BEF13F04F0E146E250E156EEDEC15F06A
:1026B000C18299EF13F02C0E016E050E026E900E82
:1026C000036E250E046E4CEC15F001500210D8A4D8
:1026D0006CEF13F06EEF13F077EF13F0010E146E42
:1026E000250E156EEDEC15F0C19099EF13F02C0E40
:1026F000016E050E026E960E036E250E046E4CECF6
:1027000015F001500210D8A488EF13F08AEF13F0EF
:1027100093EF13F0350E146E250E156EEDEC15F0DB
:10272000C19299EF13F0810E146E250E156EEDEC2B
:1027300015F0000E416E2C0E4124D96EDA6A050E9A
:10274000DA22000EDF6E412A130E4164AAEF13F065
:10275000ACEF13F09BEF13F00CEF13F00A0E4018E0
:10276000D8B4B5EF13F0B7EF13F00EEF13F09C0EE3
:10277000246E250E256E40C526F5276A27EC16F037
:102780002C0E4124D96EDA6A050EDA22610000F5BA
:10279000DFF4412A0EEF13F0FEEFFFF0610054F476
:1027A000D9F4610058F4DAF4DEC4F6F4DDC4F7F4C9
:1027B0000800F550250AD8A4E0EF13F0E2EF13F07B
:1027C00074EF14F0610054F4D9F4610058F4DAF4B1
:1027D000DE2A000EDD22000E456E000E446E44C55A
:1027E00048F545C549F546684768610054F4D9F491
:1027F000610058F4DAF4DEC4F6F4DDC4F7F408003E
:10280000F550630AD8A407EF14F009EF14F038EF7D
:1028100014F0610054F4D9F4610058F4DAF4DE2ABB
:10282000000EDD2261005CF4D9F4610060F4DAF49A
:1028300061007CF319F5020EDE2661007CF31AF5C7
:10284000000EDD22610064F4D9F4610068F4DAF46A
:10285000DF501B6E13C50BF514C50CF51BC50DF52C
:1028600094EC14F00BC513F50CC514F593EF14F0AC
:10287000610054F4D9F4610058F4DAF4DEC4F6F4DB
:10288000DDC4F7F40800F550250AD8A44AEF14F087
:102890004CEF14F065EF14F0610054F4D9F46100CA
:1028A00058F4DAF4DE2A000EDD22000E036E250E47
:1028B000026E13C504F514C505F5FEEC14F0000E08
:1028C000146E010E136E93EF14F0610054F4D9F4FA
:1028D000610058F4DAF4DE2A000EDD22000E146ED8
:1028E000000E136E93EF14F0610054F4D9F46100FC
:1028F00058F4DAF4DEC4F6F4DDC4F7F40800F55059
:10290000026E036A13C504F514C505F5FEEC14F058
:10291000610054F4D9F4610058F4DAF4DE2A000EB0
:10292000DD225FEF14F0120044504510D8A49BEF55
:1029300014F09DEF14F0A3EF14F044C511F545C554
:1029400012F5A9EF14F0FF0E4424116EFF0E45207E
:10295000126E48A0AEEF14F0B0EF14F0B9EF14F01F
:102960000DC502F5036A0BC504F50CC505F5FEECB3
:1029700014F012BEBEEF14F0C0EF14F0C2EF14F06A
:10298000C6EF14F0000E126E000E116E000E106EE7
:10299000000E0F6ED8EF14F0000E036E200E026EC4
:1029A0000BC504F50CC505F5FEEC14F00F4A102A12
:1029B00011500F5C1050800A0E6E1250800A0E5893
:1029C000D8A0E5EF14F0E7EF14F0CCEF14F048B026
:1029D000ECEF14F0EEEF14F0F7EF14F00DC502F584
:1029E000036A0BC504F50CC505F5FEEC14F0010EE9
:1029F0000F240B6E000E10200C6E120004500510F8
:102A0000D8B405EF15F007EF15F010EF15F00450EE
:102A10000510D8A40EEF15F010EF15F015EF15F016
:102A200002503AEC16F048EF15F020EE04F0045096
:102A3000D9260550DA22DE50DE10D8B422EF15F088
:102A400024EF15F03FEF15F020EE04F00450D926E6
:102A50000550DA2210EE02F00450E1260550E22281
:102A6000DE50E65CE650800A0A6EDE50800A0A58A4
:102A7000D8B03DEF15F03FEF15F048EF15F020EE20
:102A800002F00450D9260550DA22DE2A000EDD229B
:102A900002C502F5036A120052EF15F0014A022A3C
:102AA000034A042A610004F4D9F4610008F4DAF45A
:102AB000DF50056E61000CF4F6F4610010F4F7F4D9
:102AC0000800F5500518D8A468EF15F06AEF15F066
:102AD00078EF15F0610004F4D9F4610008F4DAF439
:102AE000DF50D8A476EF15F078EF15F04EEF15F023
:102AF000610004F4D9F4610008F4DAF4DF50056EE3
:102B000061000CF4F6F4610010F4F7F40800F550DD
:102B1000055C016E026AD8A0020612001EC522F5ED
:102B20001FC523F5000E436E000E426EAAEF15F08E
:102B30001CC513F51DC514F5220E156E050E166E77
:102B400020C517F521C518F5CEEC13F01350422619
:102B500014504322610088F4F6F461008CF4F7F419
:102B60000800F5500009D8A4B8EF15F0BAEF15F039
:102B700098EF15F042C51CF543C51DF51200000E77
:102B8000136E000E126ED0EF15F011C502F5036A38
:102B90000DC504F50EC505F5FEEC14F0124A132A16
:102BA00012500B240F6E13500C20106E61003CF479
:102BB000F6F4610040F4F7F408006100D4F311F575
:102BC0001150D8A4E6EF15F0E8EF15F0C5EF15F0B9
:102BD00012C50BF513C50CF51200010E186E14C5C5
:102BE0000BF515C50CF5000E0D6E000E0E6EBFEC4C
:102BF00015F00CBEFEEF15F000EF16F013EF16F017
:102C0000000E036E0A0E026E000E046E000E056EBC
:102C1000FEEC14F003BE0FEF16F011EF16F013EFF9
:102C200016F0000E186E120001EE60F1200EEE6A32
:102C3000E806FDE101EE42F1080EEE6AE806FDE16C
:102C4000000EF86E250EF76E0001D0EF12F0260E82
:102C50002A6E050E2B6E000E1C6E000E1D6E24C516
:102C60001EF525C51FF52A0E206E050E216E8EEC71
:102C700015F01200016E0201B0B941EF16F043EFFA
:0E2C800016F03BEF16F0610004F4A3F2120010
:020000040001F9
:04FFFC0014EF16F0F8
:020000040020DA
:10000000FF0FFF0FFF0FFF0FFF0FFF0FFF0FFF0F80
:10001000FF0FFF0FFF0FFF0FFF0FFF0FFF0FFF0F70
:020000040030CA
:0A0000008CD737DF9FFFFFFFFFFFE3
:00000001FF
